{"abi":[{"type":"constructor","inputs":[{"name":"admin","type":"address","internalType":"address"}],"stateMutability":"nonpayable"},{"type":"function","name":"createNFTCollection","inputs":[{"name":"name","type":"string","internalType":"string"},{"name":"symbol","type":"string","internalType":"string"}],"outputs":[],"stateMutability":"payable"},{"type":"function","name":"latestTokenId","inputs":[],"outputs":[{"name":"","type":"uint256","internalType":"uint256"}],"stateMutability":"view"},{"type":"function","name":"mint","inputs":[{"name":"owner","type":"address","internalType":"address"},{"name":"tokenURI","type":"string","internalType":"string"},{"name":"signature","type":"bytes","internalType":"bytes"}],"outputs":[{"name":"","type":"uint256","internalType":"uint256"}],"stateMutability":"nonpayable"},{"type":"function","name":"owner","inputs":[],"outputs":[{"name":"","type":"address","internalType":"address"}],"stateMutability":"view"},{"type":"function","name":"redirectForToken","inputs":[{"name":"token","type":"address","internalType":"address"},{"name":"encodedFunctionSelector","type":"bytes","internalType":"bytes"}],"outputs":[{"name":"responseCode","type":"int256","internalType":"int256"},{"name":"response","type":"bytes","internalType":"bytes"}],"stateMutability":"nonpayable"},{"type":"function","name":"renounceOwnership","inputs":[],"outputs":[],"stateMutability":"nonpayable"},{"type":"function","name":"signatures","inputs":[{"name":"tokenId","type":"uint256","internalType":"uint256"}],"outputs":[{"name":"signature","type":"bytes","internalType":"bytes"}],"stateMutability":"view"},{"type":"function","name":"tokenAddress","inputs":[],"outputs":[{"name":"","type":"address","internalType":"address"}],"stateMutability":"view"},{"type":"function","name":"transferFrom","inputs":[{"name":"token","type":"address","internalType":"address"},{"name":"from","type":"address","internalType":"address"},{"name":"to","type":"address","internalType":"address"},{"name":"amount","type":"uint256","internalType":"uint256"}],"outputs":[{"name":"responseCode","type":"int64","internalType":"int64"}],"stateMutability":"nonpayable"},{"type":"function","name":"transferFromNFT","inputs":[{"name":"token","type":"address","internalType":"address"},{"name":"from","type":"address","internalType":"address"},{"name":"to","type":"address","internalType":"address"},{"name":"serialNumber","type":"uint256","internalType":"uint256"}],"outputs":[{"name":"responseCode","type":"int64","internalType":"int64"}],"stateMutability":"nonpayable"},{"type":"function","name":"transferOwnership","inputs":[{"name":"newOwner","type":"address","internalType":"address"}],"outputs":[],"stateMutability":"nonpayable"},{"type":"event","name":"CallResponseEvent","inputs":[{"name":"","type":"bool","indexed":false,"internalType":"bool"},{"name":"","type":"bytes","indexed":false,"internalType":"bytes"}],"anonymous":false},{"type":"event","name":"NFTCollectionCreated","inputs":[{"name":"token","type":"address","indexed":true,"internalType":"address"}],"anonymous":false},{"type":"event","name":"NFTMinted","inputs":[{"name":"to","type":"address","indexed":true,"internalType":"address"},{"name":"tokenId","type":"uint256","indexed":true,"internalType":"uint256"}],"anonymous":false},{"type":"event","name":"OwnershipTransferred","inputs":[{"name":"previousOwner","type":"address","indexed":true,"internalType":"address"},{"name":"newOwner","type":"address","indexed":true,"internalType":"address"}],"anonymous":false},{"type":"error","name":"ECDSAInvalidSignature","inputs":[]},{"type":"error","name":"ECDSAInvalidSignatureLength","inputs":[{"name":"length","type":"uint256","internalType":"uint256"}]},{"type":"error","name":"ECDSAInvalidSignatureS","inputs":[{"name":"s","type":"bytes32","internalType":"bytes32"}]},{"type":"error","name":"MintFailed","inputs":[{"name":"responseCode","type":"int256","internalType":"int256"},{"name":"serialsLength","type":"uint256","internalType":"uint256"}]},{"type":"error","name":"OwnableInvalidOwner","inputs":[{"name":"owner","type":"address","internalType":"address"}]},{"type":"error","name":"OwnableUnauthorizedAccount","inputs":[{"name":"account","type":"address","internalType":"address"}]},{"type":"error","name":"SignatureFailed","inputs":[{"name":"receivedSignature","type":"bytes","internalType":"bytes"},{"name":"hash","type":"bytes32","internalType":"bytes32"},{"name":"ethSignedMessageHash","type":"bytes32","internalType":"bytes32"},{"name":"recoveredAddress","type":"address","internalType":"address"}]},{"type":"error","name":"TokenAlreadyCreated","inputs":[{"name":"tokenAddress","type":"address","internalType":"address"}]},{"type":"error","name":"TokenCreationFailed","inputs":[{"name":"responseCode","type":"int256","internalType":"int256"}]},{"type":"error","name":"TokenNotDeployed","inputs":[]}],"bytecode":{"object":"0x60a06040525f5f5f6101000a81548173ffffffffffffffffffffffffffffffffffffffff021916908373ffffffffffffffffffffffffffffffffffffffff16021790555034801561004e575f5ffd5b50604051612fbc380380612fbc833981810160405281019061007091906103ed565b336001805f5f600681111561008857610087610418565b5b600681111561009a57610099610418565b5b81526020019081526020015f2081905550600260015f600160068111156100c4576100c3610418565b5b60068111156100d6576100d5610418565b5b81526020019081526020015f2081905550600460015f60026006811115610100576100ff610418565b5b600681111561011257610111610418565b5b81526020019081526020015f2081905550600860015f6003600681111561013c5761013b610418565b5b600681111561014e5761014d610418565b5b81526020019081526020015f2081905550601060015f6004600681111561017857610177610418565b5b600681111561018a57610189610418565b5b81526020019081526020015f2081905550602060015f600560068111156101b4576101b3610418565b5b60068111156101c6576101c5610418565b5b81526020019081526020015f2081905550604060015f6006808111156101ef576101ee610418565b5b600681111561020157610200610418565b5b81526020019081526020015f20819055505f73ffffffffffffffffffffffffffffffffffffffff168173ffffffffffffffffffffffffffffffffffffffff1603610282575f6040517f1e4fbdf70000000000000000000000000000000000000000000000000000000081526004016102799190610454565b60405180910390fd5b610291816102cc60201b60201c565b508073ffffffffffffffffffffffffffffffffffffffff1660808173ffffffffffffffffffffffffffffffffffffffff16815250505061046d565b5f60025f9054906101000a900473ffffffffffffffffffffffffffffffffffffffff1690508160025f6101000a81548173ffffffffffffffffffffffffffffffffffffffff021916908373ffffffffffffffffffffffffffffffffffffffff1602179055508173ffffffffffffffffffffffffffffffffffffffff168173ffffffffffffffffffffffffffffffffffffffff167f8be0079c531659141344cd1fd0a4f28419497f9722a3daafe3b4186f6b6457e060405160405180910390a35050565b5f5ffd5b5f73ffffffffffffffffffffffffffffffffffffffff82169050919050565b5f6103bc82610393565b9050919050565b6103cc816103b2565b81146103d6575f5ffd5b50565b5f815190506103e7816103c3565b92915050565b5f602082840312156104025761040161038f565b5b5f61040f848285016103d9565b91505092915050565b7f4e487b71000000000000000000000000000000000000000000000000000000005f52602160045260245ffd5b61044e816103b2565b82525050565b5f6020820190506104675f830184610445565b92915050565b608051612b376104855f395f6109650152612b375ff3fe60806040526004361061009b575f3560e01c80638c0e8349116100635780638c0e8349146101865780638d75533f146101b05780638da5cb5b146101ec5780639b23d3d9146102165780639d76ea5814610252578063f2fde38b1461027c5761009b565b806315dacbea1461009f578063618dc65e146100db57806366223a1814610118578063715018a6146101345780638be101941461014a575b5f5ffd5b3480156100aa575f5ffd5b506100c560048036038101906100c09190611870565b6102a4565b6040516100d291906118ef565b60405180910390f35b3480156100e6575f5ffd5b5061010160048036038101906100fc9190611a44565b6103bc565b60405161010f929190611b16565b60405180910390f35b610132600480360381019061012d9190611be2565b610511565b005b34801561013f575f5ffd5b506101486107cc565b005b348015610155575f5ffd5b50610170600480360381019061016b9190611c58565b6107df565b60405161017d9190611c83565b60405180910390f35b348015610191575f5ffd5b5061019a61087a565b6040516101a79190611cb2565b60405180910390f35b3480156101bb575f5ffd5b506101d660048036038101906101d19190611ccb565b610880565b6040516101e39190611cb2565b60405180910390f35b3480156101f7575f5ffd5b50610200610a54565b60405161020d9190611d62565b60405180910390f35b348015610221575f5ffd5b5061023c60048036038101906102379190611870565b610a7c565b60405161024991906118ef565b60405180910390f35b34801561025d575f5ffd5b50610266610b94565b6040516102739190611d62565b60405180910390f35b348015610287575f5ffd5b506102a2600480360381019061029d9190611d7b565b610bb9565b005b5f5f5f61016773ffffffffffffffffffffffffffffffffffffffff166315dacbea60e01b888888886040516024016102df9493929190611da6565b604051602081830303815290604052907bffffffffffffffffffffffffffffffffffffffffffffffffffffffff19166020820180517bffffffffffffffffffffffffffffffffffffffffffffffffffffffff83818316178352505050506040516103499190611e23565b5f604051808303815f865af19150503d805f8114610382576040519150601f19603f3d011682016040523d82523d5f602084013e610387565b606091505b5091509150816103985760156103ad565b808060200190518101906103ac9190611e6f565b5b60030b92505050949350505050565b5f60605f5f61016773ffffffffffffffffffffffffffffffffffffffff1663618dc65e60e01b87876040516024016103f5929190611e9a565b604051602081830303815290604052907bffffffffffffffffffffffffffffffffffffffffffffffffffffffff19166020820180517bffffffffffffffffffffffffffffffffffffffffffffffffffffffff838183161783525050505060405161045f9190611e23565b5f604051808303815f865af19150503d805f8114610498576040519150601f19603f3d011682016040523d82523d5f602084013e61049d565b606091505b50915091507f4af4780e06fe8cb9df64b0794fa6f01399af979175bb988e35e0e57e594567bc82826040516104d3929190611ee2565b60405180910390a1816104f657601560405180602001604052805f8152506104fa565b6016815b8160030b9150809450819550505050509250929050565b610519610c3d565b5f73ffffffffffffffffffffffffffffffffffffffff1660035f9054906101000a900473ffffffffffffffffffffffffffffffffffffffff1673ffffffffffffffffffffffffffffffffffffffff16146105cb5760035f9054906101000a900473ffffffffffffffffffffffffffffffffffffffff166040517f243712870000000000000000000000000000000000000000000000000000000081526004016105c29190611d62565b60405180910390fd5b6105d36116b4565b82815f018190525081816020018190525030816040019073ffffffffffffffffffffffffffffffffffffffff16908173ffffffffffffffffffffffffffffffffffffffff168152505060405180602001604052805f81525081606001819052505f600267ffffffffffffffff81111561064f5761064e611920565b5b60405190808252806020026020018201604052801561068857816020015b61067561171f565b81526020019060019003908161066d5790505b5090506106986004600130610cc4565b815f815181106106ab576106aa611f10565b5b60200260200101819052506106c25f600130610cc4565b816001815181106106d6576106d5611f10565b5b6020026020010181905250808260e001819052505f5f6106f584610cfb565b91509150601660030b821461074157816040517ffa5e830f0000000000000000000000000000000000000000000000000000000081526004016107389190611f3d565b60405180910390fd5b8060035f6101000a81548173ffffffffffffffffffffffffffffffffffffffff021916908373ffffffffffffffffffffffffffffffffffffffff1602179055508073ffffffffffffffffffffffffffffffffffffffff167f964b1185e1204f84d2c2992deb9f7ac558464b5c2a7943f91b7ded11f3913e5160405160405180910390a2505050505050565b6107d4610c3d565b6107dd5f610e61565b565b6005602052805f5260405f205f9150905080546107fb90611f83565b80601f016020809104026020016040519081016040528092919081815260200182805461082790611f83565b80156108725780601f1061084957610100808354040283529160200191610872565b820191905f5260205f20905b81548152906001019060200180831161085557829003601f168201915b505050505081565b60045481565b5f5f73ffffffffffffffffffffffffffffffffffffffff1660035f9054906101000a900473ffffffffffffffffffffffffffffffffffffffff1673ffffffffffffffffffffffffffffffffffffffff1603610907576040517f7c272e8a00000000000000000000000000000000000000000000000000000000815260040160405180910390fd5b5f60016004546109179190611fe0565b90505f818660405160200161092d929190612078565b6040516020818303038152906040528051906020012090505f6109618561095384610f24565b610f5790919063ffffffff16565b90507f000000000000000000000000000000000000000000000000000000000000000073ffffffffffffffffffffffffffffffffffffffff168173ffffffffffffffffffffffffffffffffffffffff1614610a015784826109c184610f24565b836040517fe801775f0000000000000000000000000000000000000000000000000000000081526004016109f894939291906120bb565b60405180910390fd5b5f869050610a0f8882610f81565b508560055f8681526020019081526020015f209081610a2e91906122a5565b5060045f815480929190610a4190612374565b9190505550839450505050509392505050565b5f60025f9054906101000a900473ffffffffffffffffffffffffffffffffffffffff16905090565b5f5f5f61016773ffffffffffffffffffffffffffffffffffffffff16639b23d3d960e01b88888888604051602401610ab79493929190611da6565b604051602081830303815290604052907bffffffffffffffffffffffffffffffffffffffffffffffffffffffff19166020820180517bffffffffffffffffffffffffffffffffffffffffffffffffffffffff8381831617835250505050604051610b219190611e23565b5f604051808303815f865af19150503d805f8114610b5a576040519150601f19603f3d011682016040523d82523d5f602084013e610b5f565b606091505b509150915081610b70576015610b85565b80806020019051810190610b849190611e6f565b5b60030b92505050949350505050565b60035f9054906101000a900473ffffffffffffffffffffffffffffffffffffffff1681565b610bc1610c3d565b5f73ffffffffffffffffffffffffffffffffffffffff168173ffffffffffffffffffffffffffffffffffffffff1603610c31575f6040517f1e4fbdf7000000000000000000000000000000000000000000000000000000008152600401610c289190611d62565b60405180910390fd5b610c3a81610e61565b50565b610c45611184565b73ffffffffffffffffffffffffffffffffffffffff16610c63610a54565b73ffffffffffffffffffffffffffffffffffffffff1614610cc257610c86611184565b6040517f118cdaa7000000000000000000000000000000000000000000000000000000008152600401610cb99190611d62565b60405180910390fd5b565b610ccc61171f565b6040518060400160405280610ce08661118b565b8152602001610cef85856111c9565b81525090509392505050565b5f5f825f8161010001515f015160070b148015610d2357505f8161010001516040015160070b145b15610d46576276a70060030b8161010001516040019060070b908160070b815250505b5f5f61016773ffffffffffffffffffffffffffffffffffffffff163463ea83f29360e01b88604051602401610d7b9190612717565b604051602081830303815290604052907bffffffffffffffffffffffffffffffffffffffffffffffffffffffff19166020820180517bffffffffffffffffffffffffffffffffffffffffffffffffffffffff8381831617835250505050604051610de59190611e23565b5f6040518083038185875af1925050503d805f8114610e1f576040519150601f19603f3d011682016040523d82523d5f602084013e610e24565b606091505b509150915081610e365760155f610e4b565b80806020019051810190610e4a9190612772565b5b8160030b91508095508196505050505050915091565b5f60025f9054906101000a900473ffffffffffffffffffffffffffffffffffffffff1690508160025f6101000a81548173ffffffffffffffffffffffffffffffffffffffff021916908373ffffffffffffffffffffffffffffffffffffffff1602179055508173ffffffffffffffffffffffffffffffffffffffff168173ffffffffffffffffffffffffffffffffffffffff167f8be0079c531659141344cd1fd0a4f28419497f9722a3daafe3b4186f6b6457e060405160405180910390a35050565b5f7f19457468657265756d205369676e6564204d6573736167653a0a3332000000005f5281601c52603c5f209050919050565b5f5f5f5f610f6586866112a5565b925092509250610f7582826112fa565b82935050505092915050565b5f5f600167ffffffffffffffff811115610f9e57610f9d611920565b5b604051908082528060200260200182016040528015610fd157816020015b6060815260200190600190039081610fbc5790505b50905082815f81518110610fe857610fe7611f10565b5b60200260200101819052505f5f61102160035f9054906101000a900473ffffffffffffffffffffffffffffffffffffffff165f8561145c565b9250509150601660030b8214158061103b57506001815114155b15611080578181516040517fe2aa95e30000000000000000000000000000000000000000000000000000000081526004016110779291906127b0565b60405180910390fd5b5f815f8151811061109457611093611f10565b5b602002602001015167ffffffffffffffff16905060035f9054906101000a900473ffffffffffffffffffffffffffffffffffffffff1673ffffffffffffffffffffffffffffffffffffffff166323b872dd3089846040518463ffffffff1660e01b8152600401611106939291906127d7565b5f604051808303815f87803b15801561111d575f5ffd5b505af115801561112f573d5f5f3e3d5ffd5b50505050808773ffffffffffffffffffffffffffffffffffffffff167f4cc0a9c4a99ddc700de1af2c9f916a7cbfdb71f14801ccff94061ad1ef8a804060405160405180910390a38094505050505092915050565b5f33905090565b5f60015f8360068111156111a2576111a161280c565b5b60068111156111b4576111b361280c565b5b81526020019081526020015f20549050919050565b6111d161173e565b600160048111156111e5576111e461280c565b5b8360048111156111f8576111f761280c565b5b0361123a5781816020019073ffffffffffffffffffffffffffffffffffffffff16908173ffffffffffffffffffffffffffffffffffffffff168152505061129f565b60048081111561124d5761124c61280c565b5b8360048111156112605761125f61280c565b5b0361129e5781816080019073ffffffffffffffffffffffffffffffffffffffff16908173ffffffffffffffffffffffffffffffffffffffff16815250505b5b92915050565b5f5f5f60418451036112e5575f5f5f602087015192506040870151915060608701515f1a90506112d7888285856115cd565b9550955095505050506112f3565b5f600285515f1b9250925092505b9250925092565b5f600381111561130d5761130c61280c565b5b8260038111156113205761131f61280c565b5b0315611458576001600381111561133a5761133961280c565b5b82600381111561134d5761134c61280c565b5b03611384576040517ff645eedf00000000000000000000000000000000000000000000000000000000815260040160405180910390fd5b600260038111156113985761139761280c565b5b8260038111156113ab576113aa61280c565b5b036113ef57805f1c6040517ffce698f70000000000000000000000000000000000000000000000000000000081526004016113e69190611cb2565b60405180910390fd5b6003808111156114025761140161280c565b5b8260038111156114155761141461280c565b5b0361145757806040517fd78bce0c00000000000000000000000000000000000000000000000000000000815260040161144e9190612839565b60405180910390fd5b5b5050565b5f5f60605f5f61016773ffffffffffffffffffffffffffffffffffffffff1663e0f4059a60e01b8989896040516024016114989392919061290d565b604051602081830303815290604052907bffffffffffffffffffffffffffffffffffffffffffffffffffffffff19166020820180517bffffffffffffffffffffffffffffffffffffffffffffffffffffffff83818316178352505050506040516115029190611e23565b5f604051808303815f865af19150503d805f811461153b576040519150601f19603f3d011682016040523d82523d5f602084013e611540565b606091505b50915091508161159b5760155f5f67ffffffffffffffff81111561156757611566611920565b5b6040519080825280602002602001820160405280156115955781602001602082028036833780820191505090505b506115b0565b808060200190518101906115af9190612a37565b5b8260030b9250809550819650829750505050505093509350939050565b5f5f5f7f7fffffffffffffffffffffffffffffff5d576e7357a4501ddfe92f46681b20a0845f1c1115611609575f6003859250925092506116aa565b5f6001888888886040515f815260200160405260405161162c9493929190612abe565b6020604051602081039080840390855afa15801561164c573d5f5f3e3d5ffd5b5050506020604051035190505f73ffffffffffffffffffffffffffffffffffffffff168173ffffffffffffffffffffffffffffffffffffffff160361169d575f60015f5f1b935093509350506116aa565b805f5f5f1b935093509350505b9450945094915050565b60405180610120016040528060608152602001606081526020015f73ffffffffffffffffffffffffffffffffffffffff168152602001606081526020015f151581526020015f60070b81526020015f1515815260200160608152602001611719611798565b81525090565b60405180604001604052805f815260200161173861173e565b81525090565b6040518060a001604052805f151581526020015f73ffffffffffffffffffffffffffffffffffffffff16815260200160608152602001606081526020015f73ffffffffffffffffffffffffffffffffffffffff1681525090565b60405180606001604052805f60070b81526020015f73ffffffffffffffffffffffffffffffffffffffff1681526020015f60070b81525090565b5f604051905090565b5f5ffd5b5f5ffd5b5f73ffffffffffffffffffffffffffffffffffffffff82169050919050565b5f61180c826117e3565b9050919050565b61181c81611802565b8114611826575f5ffd5b50565b5f8135905061183781611813565b92915050565b5f819050919050565b61184f8161183d565b8114611859575f5ffd5b50565b5f8135905061186a81611846565b92915050565b5f5f5f5f60808587031215611888576118876117db565b5b5f61189587828801611829565b94505060206118a687828801611829565b93505060406118b787828801611829565b92505060606118c88782880161185c565b91505092959194509250565b5f8160070b9050919050565b6118e9816118d4565b82525050565b5f6020820190506119025f8301846118e0565b92915050565b5f5ffd5b5f5ffd5b5f601f19601f8301169050919050565b7f4e487b71000000000000000000000000000000000000000000000000000000005f52604160045260245ffd5b61195682611910565b810181811067ffffffffffffffff8211171561197557611974611920565b5b80604052505050565b5f6119876117d2565b9050611993828261194d565b919050565b5f67ffffffffffffffff8211156119b2576119b1611920565b5b6119bb82611910565b9050602081019050919050565b828183375f83830152505050565b5f6119e86119e384611998565b61197e565b905082815260208101848484011115611a0457611a0361190c565b5b611a0f8482856119c8565b509392505050565b5f82601f830112611a2b57611a2a611908565b5b8135611a3b8482602086016119d6565b91505092915050565b5f5f60408385031215611a5a57611a596117db565b5b5f611a6785828601611829565b925050602083013567ffffffffffffffff811115611a8857611a876117df565b5b611a9485828601611a17565b9150509250929050565b5f819050919050565b611ab081611a9e565b82525050565b5f81519050919050565b5f82825260208201905092915050565b8281835e5f83830152505050565b5f611ae882611ab6565b611af28185611ac0565b9350611b02818560208601611ad0565b611b0b81611910565b840191505092915050565b5f604082019050611b295f830185611aa7565b8181036020830152611b3b8184611ade565b90509392505050565b5f67ffffffffffffffff821115611b5e57611b5d611920565b5b611b6782611910565b9050602081019050919050565b5f611b86611b8184611b44565b61197e565b905082815260208101848484011115611ba257611ba161190c565b5b611bad8482856119c8565b509392505050565b5f82601f830112611bc957611bc8611908565b5b8135611bd9848260208601611b74565b91505092915050565b5f5f60408385031215611bf857611bf76117db565b5b5f83013567ffffffffffffffff811115611c1557611c146117df565b5b611c2185828601611bb5565b925050602083013567ffffffffffffffff811115611c4257611c416117df565b5b611c4e85828601611bb5565b9150509250929050565b5f60208284031215611c6d57611c6c6117db565b5b5f611c7a8482850161185c565b91505092915050565b5f6020820190508181035f830152611c9b8184611ade565b905092915050565b611cac8161183d565b82525050565b5f602082019050611cc55f830184611ca3565b92915050565b5f5f5f60608486031215611ce257611ce16117db565b5b5f611cef86828701611829565b935050602084013567ffffffffffffffff811115611d1057611d0f6117df565b5b611d1c86828701611bb5565b925050604084013567ffffffffffffffff811115611d3d57611d3c6117df565b5b611d4986828701611a17565b9150509250925092565b611d5c81611802565b82525050565b5f602082019050611d755f830184611d53565b92915050565b5f60208284031215611d9057611d8f6117db565b5b5f611d9d84828501611829565b91505092915050565b5f608082019050611db95f830187611d53565b611dc66020830186611d53565b611dd36040830185611d53565b611de06060830184611ca3565b95945050505050565b5f81905092915050565b5f611dfd82611ab6565b611e078185611de9565b9350611e17818560208601611ad0565b80840191505092915050565b5f611e2e8284611df3565b915081905092915050565b5f8160030b9050919050565b611e4e81611e39565b8114611e58575f5ffd5b50565b5f81519050611e6981611e45565b92915050565b5f60208284031215611e8457611e836117db565b5b5f611e9184828501611e5b565b91505092915050565b5f604082019050611ead5f830185611d53565b8181036020830152611ebf8184611ade565b90509392505050565b5f8115159050919050565b611edc81611ec8565b82525050565b5f604082019050611ef55f830185611ed3565b8181036020830152611f078184611ade565b90509392505050565b7f4e487b71000000000000000000000000000000000000000000000000000000005f52603260045260245ffd5b5f602082019050611f505f830184611aa7565b92915050565b7f4e487b71000000000000000000000000000000000000000000000000000000005f52602260045260245ffd5b5f6002820490506001821680611f9a57607f821691505b602082108103611fad57611fac611f56565b5b50919050565b7f4e487b71000000000000000000000000000000000000000000000000000000005f52601160045260245ffd5b5f611fea8261183d565b9150611ff58361183d565b925082820190508082111561200d5761200c611fb3565b5b92915050565b5f819050919050565b61202d6120288261183d565b612013565b82525050565b5f8160601b9050919050565b5f61204982612033565b9050919050565b5f61205a8261203f565b9050919050565b61207261206d82611802565b612050565b82525050565b5f612083828561201c565b6020820191506120938284612061565b6014820191508190509392505050565b5f819050919050565b6120b5816120a3565b82525050565b5f6080820190508181035f8301526120d38187611ade565b90506120e260208301866120ac565b6120ef60408301856120ac565b6120fc6060830184611d53565b95945050505050565b5f819050815f5260205f209050919050565b5f6020601f8301049050919050565b5f82821b905092915050565b5f600883026121617fffffffffffffffffffffffffffffffffffffffffffffffffffffffffffffffff82612126565b61216b8683612126565b95508019841693508086168417925050509392505050565b5f819050919050565b5f6121a66121a161219c8461183d565b612183565b61183d565b9050919050565b5f819050919050565b6121bf8361218c565b6121d36121cb826121ad565b848454612132565b825550505050565b5f5f905090565b6121ea6121db565b6121f58184846121b6565b505050565b5b818110156122185761220d5f826121e2565b6001810190506121fb565b5050565b601f82111561225d5761222e81612105565b61223784612117565b81016020851015612246578190505b61225a61225285612117565b8301826121fa565b50505b505050565b5f82821c905092915050565b5f61227d5f1984600802612262565b1980831691505092915050565b5f612295838361226e565b9150826002028217905092915050565b6122ae82611ab6565b67ffffffffffffffff8111156122c7576122c6611920565b5b6122d18254611f83565b6122dc82828561221c565b5f60209050601f83116001811461230d575f84156122fb578287015190505b612305858261228a565b86555061236c565b601f19841661231b86612105565b5f5b828110156123425784890151825560018201915060208501945060208101905061231d565b8683101561235f578489015161235b601f89168261226e565b8355505b6001600288020188555050505b505050505050565b5f61237e8261183d565b91507fffffffffffffffffffffffffffffffffffffffffffffffffffffffffffffffff82036123b0576123af611fb3565b5b600182019050919050565b5f81519050919050565b5f82825260208201905092915050565b5f6123df826123bb565b6123e981856123c5565b93506123f9818560208601611ad0565b61240281611910565b840191505092915050565b61241681611802565b82525050565b61242581611ec8565b82525050565b612434816118d4565b82525050565b5f81519050919050565b5f82825260208201905092915050565b5f819050602082019050919050565b61246c8161183d565b82525050565b5f82825260208201905092915050565b5f61248c82611ab6565b6124968185612472565b93506124a6818560208601611ad0565b6124af81611910565b840191505092915050565b5f60a083015f8301516124cf5f86018261241c565b5060208301516124e2602086018261240d565b50604083015184820360408601526124fa8282612482565b915050606083015184820360608601526125148282612482565b9150506080830151612529608086018261240d565b508091505092915050565b5f604083015f8301516125495f860182612463565b506020830151848203602086015261256182826124ba565b9150508091505092915050565b5f6125798383612534565b905092915050565b5f602082019050919050565b5f6125978261243a565b6125a18185612444565b9350836020820285016125b385612454565b805f5b858110156125ee57848403895281516125cf858261256e565b94506125da83612581565b925060208a019950506001810190506125b6565b50829750879550505050505092915050565b606082015f8201516126145f85018261242b565b506020820151612627602085018261240d565b50604082015161263a604085018261242b565b50505050565b5f61016083015f8301518482035f86015261265b82826123d5565b9150506020830151848203602086015261267582826123d5565b915050604083015161268a604086018261240d565b50606083015184820360608601526126a282826123d5565b91505060808301516126b7608086018261241c565b5060a08301516126ca60a086018261242b565b5060c08301516126dd60c086018261241c565b5060e083015184820360e08601526126f5828261258d565b91505061010083015161270c610100860182612600565b508091505092915050565b5f6020820190508181035f83015261272f8184612640565b905092915050565b5f612741826117e3565b9050919050565b61275181612737565b811461275b575f5ffd5b50565b5f8151905061276c81612748565b92915050565b5f5f60408385031215612788576127876117db565b5b5f61279585828601611e5b565b92505060206127a68582860161275e565b9150509250929050565b5f6040820190506127c35f830185611aa7565b6127d06020830184611ca3565b9392505050565b5f6060820190506127ea5f830186611d53565b6127f76020830185611d53565b6128046040830184611ca3565b949350505050565b7f4e487b71000000000000000000000000000000000000000000000000000000005f52602160045260245ffd5b5f60208201905061284c5f8301846120ac565b92915050565b5f81519050919050565b5f82825260208201905092915050565b5f819050602082019050919050565b5f6128868383612482565b905092915050565b5f602082019050919050565b5f6128a482612852565b6128ae818561285c565b9350836020820285016128c08561286c565b805f5b858110156128fb57848403895281516128dc858261287b565b94506128e78361288e565b925060208a019950506001810190506128c3565b50829750879550505050505092915050565b5f6060820190506129205f830186611d53565b61292d60208301856118e0565b818103604083015261293f818461289a565b9050949350505050565b612952816118d4565b811461295c575f5ffd5b50565b5f8151905061296d81612949565b92915050565b5f67ffffffffffffffff82111561298d5761298c611920565b5b602082029050602081019050919050565b5f5ffd5b5f6129b46129af84612973565b61197e565b905080838252602082019050602084028301858111156129d7576129d661299e565b5b835b81811015612a0057806129ec888261295f565b8452602084019350506020810190506129d9565b5050509392505050565b5f82601f830112612a1e57612a1d611908565b5b8151612a2e8482602086016129a2565b91505092915050565b5f5f5f60608486031215612a4e57612a4d6117db565b5b5f612a5b86828701611e5b565b9350506020612a6c8682870161295f565b925050604084015167ffffffffffffffff811115612a8d57612a8c6117df565b5b612a9986828701612a0a565b9150509250925092565b5f60ff82169050919050565b612ab881612aa3565b82525050565b5f608082019050612ad15f8301876120ac565b612ade6020830186612aaf565b612aeb60408301856120ac565b612af860608301846120ac565b9594505050505056fea264697066735822122041aad1f2ece5a28493d1542f8644fb901465cc1d37ef5ca839da9ca0a3b14cb164736f6c634300081e0033","linkReferences":{}},"methodIdentifiers":{"createNFTCollection(string,string)":"66223a18","latestTokenId()":"8c0e8349","mint(address,string,bytes)":"8d75533f","owner()":"8da5cb5b","redirectForToken(address,bytes)":"618dc65e","renounceOwnership()":"715018a6","signatures(uint256)":"8be10194","tokenAddress()":"9d76ea58","transferFrom(address,address,address,uint256)":"15dacbea","transferFromNFT(address,address,address,uint256)":"9b23d3d9","transferOwnership(address)":"f2fde38b"},"id":34}