{"abi":[{"type":"constructor","inputs":[{"name":"admin","type":"address","internalType":"address"}],"stateMutability":"nonpayable"},{"type":"function","name":"createNFTCollection","inputs":[{"name":"name","type":"string","internalType":"string"},{"name":"symbol","type":"string","internalType":"string"}],"outputs":[],"stateMutability":"payable"},{"type":"function","name":"latestTokenId","inputs":[],"outputs":[{"name":"","type":"uint256","internalType":"uint256"}],"stateMutability":"view"},{"type":"function","name":"mint","inputs":[{"name":"owner","type":"address","internalType":"address"},{"name":"tokenURI","type":"string","internalType":"string"},{"name":"signature","type":"bytes","internalType":"bytes"}],"outputs":[{"name":"","type":"uint256","internalType":"uint256"}],"stateMutability":"nonpayable"},{"type":"function","name":"owner","inputs":[],"outputs":[{"name":"","type":"address","internalType":"address"}],"stateMutability":"view"},{"type":"function","name":"redirectForToken","inputs":[{"name":"token","type":"address","internalType":"address"},{"name":"encodedFunctionSelector","type":"bytes","internalType":"bytes"}],"outputs":[{"name":"responseCode","type":"int256","internalType":"int256"},{"name":"response","type":"bytes","internalType":"bytes"}],"stateMutability":"nonpayable"},{"type":"function","name":"renounceOwnership","inputs":[],"outputs":[],"stateMutability":"nonpayable"},{"type":"function","name":"signatures","inputs":[{"name":"tokenId","type":"uint256","internalType":"uint256"}],"outputs":[{"name":"signature","type":"bytes","internalType":"bytes"}],"stateMutability":"view"},{"type":"function","name":"tokenAddress","inputs":[],"outputs":[{"name":"","type":"address","internalType":"address"}],"stateMutability":"view"},{"type":"function","name":"transferFrom","inputs":[{"name":"token","type":"address","internalType":"address"},{"name":"from","type":"address","internalType":"address"},{"name":"to","type":"address","internalType":"address"},{"name":"amount","type":"uint256","internalType":"uint256"}],"outputs":[{"name":"responseCode","type":"int64","internalType":"int64"}],"stateMutability":"nonpayable"},{"type":"function","name":"transferFromNFT","inputs":[{"name":"token","type":"address","internalType":"address"},{"name":"from","type":"address","internalType":"address"},{"name":"to","type":"address","internalType":"address"},{"name":"serialNumber","type":"uint256","internalType":"uint256"}],"outputs":[{"name":"responseCode","type":"int64","internalType":"int64"}],"stateMutability":"nonpayable"},{"type":"function","name":"transferOwnership","inputs":[{"name":"newOwner","type":"address","internalType":"address"}],"outputs":[],"stateMutability":"nonpayable"},{"type":"event","name":"CallResponseEvent","inputs":[{"name":"","type":"bool","indexed":false,"internalType":"bool"},{"name":"","type":"bytes","indexed":false,"internalType":"bytes"}],"anonymous":false},{"type":"event","name":"NFTCollectionCreated","inputs":[{"name":"token","type":"address","indexed":true,"internalType":"address"}],"anonymous":false},{"type":"event","name":"NFTMinted","inputs":[{"name":"to","type":"address","indexed":true,"internalType":"address"},{"name":"tokenId","type":"uint256","indexed":true,"internalType":"uint256"}],"anonymous":false},{"type":"event","name":"OwnershipTransferred","inputs":[{"name":"previousOwner","type":"address","indexed":true,"internalType":"address"},{"name":"newOwner","type":"address","indexed":true,"internalType":"address"}],"anonymous":false},{"type":"error","name":"ECDSAInvalidSignature","inputs":[]},{"type":"error","name":"ECDSAInvalidSignatureLength","inputs":[{"name":"length","type":"uint256","internalType":"uint256"}]},{"type":"error","name":"ECDSAInvalidSignatureS","inputs":[{"name":"s","type":"bytes32","internalType":"bytes32"}]},{"type":"error","name":"MintFailed","inputs":[{"name":"responseCode","type":"int256","internalType":"int256"},{"name":"serialsLength","type":"uint256","internalType":"uint256"}]},{"type":"error","name":"OwnableInvalidOwner","inputs":[{"name":"owner","type":"address","internalType":"address"}]},{"type":"error","name":"OwnableUnauthorizedAccount","inputs":[{"name":"account","type":"address","internalType":"address"}]},{"type":"error","name":"SignatureFailed","inputs":[{"name":"receivedSignature","type":"bytes","internalType":"bytes"},{"name":"hash","type":"bytes32","internalType":"bytes32"},{"name":"ethSignedMessageHash","type":"bytes32","internalType":"bytes32"},{"name":"recoveredAddress","type":"address","internalType":"address"}]},{"type":"error","name":"TokenAlreadyCreated","inputs":[{"name":"tokenAddress","type":"address","internalType":"address"}]},{"type":"error","name":"TokenCreationFailed","inputs":[{"name":"responseCode","type":"int256","internalType":"int256"}]},{"type":"error","name":"TokenNotDeployed","inputs":[]}],"bytecode":{"object":"0x60a06040525f5f5f6101000a81548173ffffffffffffffffffffffffffffffffffffffff021916908373ffffffffffffffffffffffffffffffffffffffff16021790555034801561004e575f5ffd5b50604051612fcc380380612fcc833981810160405281019061007091906103ed565b336001805f5f600681111561008857610087610418565b5b600681111561009a57610099610418565b5b81526020019081526020015f2081905550600260015f600160068111156100c4576100c3610418565b5b60068111156100d6576100d5610418565b5b81526020019081526020015f2081905550600460015f60026006811115610100576100ff610418565b5b600681111561011257610111610418565b5b81526020019081526020015f2081905550600860015f6003600681111561013c5761013b610418565b5b600681111561014e5761014d610418565b5b81526020019081526020015f2081905550601060015f6004600681111561017857610177610418565b5b600681111561018a57610189610418565b5b81526020019081526020015f2081905550602060015f600560068111156101b4576101b3610418565b5b60068111156101c6576101c5610418565b5b81526020019081526020015f2081905550604060015f6006808111156101ef576101ee610418565b5b600681111561020157610200610418565b5b81526020019081526020015f20819055505f73ffffffffffffffffffffffffffffffffffffffff168173ffffffffffffffffffffffffffffffffffffffff1603610282575f6040517f1e4fbdf70000000000000000000000000000000000000000000000000000000081526004016102799190610454565b60405180910390fd5b610291816102cc60201b60201c565b508073ffffffffffffffffffffffffffffffffffffffff1660808173ffffffffffffffffffffffffffffffffffffffff16815250505061046d565b5f60025f9054906101000a900473ffffffffffffffffffffffffffffffffffffffff1690508160025f6101000a81548173ffffffffffffffffffffffffffffffffffffffff021916908373ffffffffffffffffffffffffffffffffffffffff1602179055508173ffffffffffffffffffffffffffffffffffffffff168173ffffffffffffffffffffffffffffffffffffffff167f8be0079c531659141344cd1fd0a4f28419497f9722a3daafe3b4186f6b6457e060405160405180910390a35050565b5f5ffd5b5f73ffffffffffffffffffffffffffffffffffffffff82169050919050565b5f6103bc82610393565b9050919050565b6103cc816103b2565b81146103d6575f5ffd5b50565b5f815190506103e7816103c3565b92915050565b5f602082840312156104025761040161038f565b5b5f61040f848285016103d9565b91505092915050565b7f4e487b71000000000000000000000000000000000000000000000000000000005f52602160045260245ffd5b61044e816103b2565b82525050565b5f6020820190506104675f830184610445565b92915050565b608051612b476104855f395f610e910152612b475ff3fe60806040526004361061009b575f3560e01c80638c0e8349116100635780638c0e8349146101865780638d75533f146101b05780638da5cb5b146101ec5780639b23d3d9146102165780639d76ea5814610252578063f2fde38b1461027c5761009b565b806315dacbea1461009f578063618dc65e146100db57806366223a1814610118578063715018a6146101345780638be101941461014a575b5f5ffd5b3480156100aa575f5ffd5b506100c560048036038101906100c09190611880565b6102a4565b6040516100d291906118ff565b60405180910390f35b3480156100e6575f5ffd5b5061010160048036038101906100fc9190611a54565b6103bc565b60405161010f929190611b26565b60405180910390f35b610132600480360381019061012d9190611bf2565b610511565b005b34801561013f575f5ffd5b506101486107cc565b005b348015610155575f5ffd5b50610170600480360381019061016b9190611c68565b6107df565b60405161017d9190611c93565b60405180910390f35b348015610191575f5ffd5b5061019a61087a565b6040516101a79190611cc2565b60405180910390f35b3480156101bb575f5ffd5b506101d660048036038101906101d19190611cdb565b610880565b6040516101e39190611cc2565b60405180910390f35b3480156101f7575f5ffd5b50610200610975565b60405161020d9190611d72565b60405180910390f35b348015610221575f5ffd5b5061023c60048036038101906102379190611880565b61099d565b60405161024991906118ff565b60405180910390f35b34801561025d575f5ffd5b50610266610ab5565b6040516102739190611d72565b60405180910390f35b348015610287575f5ffd5b506102a2600480360381019061029d9190611d8b565b610ada565b005b5f5f5f61016773ffffffffffffffffffffffffffffffffffffffff166315dacbea60e01b888888886040516024016102df9493929190611db6565b604051602081830303815290604052907bffffffffffffffffffffffffffffffffffffffffffffffffffffffff19166020820180517bffffffffffffffffffffffffffffffffffffffffffffffffffffffff83818316178352505050506040516103499190611e33565b5f604051808303815f865af19150503d805f8114610382576040519150601f19603f3d011682016040523d82523d5f602084013e610387565b606091505b5091509150816103985760156103ad565b808060200190518101906103ac9190611e7f565b5b60030b92505050949350505050565b5f60605f5f61016773ffffffffffffffffffffffffffffffffffffffff1663618dc65e60e01b87876040516024016103f5929190611eaa565b604051602081830303815290604052907bffffffffffffffffffffffffffffffffffffffffffffffffffffffff19166020820180517bffffffffffffffffffffffffffffffffffffffffffffffffffffffff838183161783525050505060405161045f9190611e33565b5f604051808303815f865af19150503d805f8114610498576040519150601f19603f3d011682016040523d82523d5f602084013e61049d565b606091505b50915091507f4af4780e06fe8cb9df64b0794fa6f01399af979175bb988e35e0e57e594567bc82826040516104d3929190611ef2565b60405180910390a1816104f657601560405180602001604052805f8152506104fa565b6016815b8160030b9150809450819550505050509250929050565b610519610b5e565b5f73ffffffffffffffffffffffffffffffffffffffff1660035f9054906101000a900473ffffffffffffffffffffffffffffffffffffffff1673ffffffffffffffffffffffffffffffffffffffff16146105cb5760035f9054906101000a900473ffffffffffffffffffffffffffffffffffffffff166040517f243712870000000000000000000000000000000000000000000000000000000081526004016105c29190611d72565b60405180910390fd5b6105d36116c4565b82815f018190525081816020018190525030816040019073ffffffffffffffffffffffffffffffffffffffff16908173ffffffffffffffffffffffffffffffffffffffff168152505060405180602001604052805f81525081606001819052505f600267ffffffffffffffff81111561064f5761064e611930565b5b60405190808252806020026020018201604052801561068857816020015b61067561172f565b81526020019060019003908161066d5790505b5090506106986004600130610be5565b815f815181106106ab576106aa611f20565b5b60200260200101819052506106c25f600130610be5565b816001815181106106d6576106d5611f20565b5b6020026020010181905250808260e001819052505f5f6106f584610c1c565b91509150601660030b821461074157816040517ffa5e830f0000000000000000000000000000000000000000000000000000000081526004016107389190611f4d565b60405180910390fd5b8060035f6101000a81548173ffffffffffffffffffffffffffffffffffffffff021916908373ffffffffffffffffffffffffffffffffffffffff1602179055508073ffffffffffffffffffffffffffffffffffffffff167f964b1185e1204f84d2c2992deb9f7ac558464b5c2a7943f91b7ded11f3913e5160405160405180910390a2505050505050565b6107d4610b5e565b6107dd5f610d82565b565b6005602052805f5260405f205f9150905080546107fb90611f93565b80601f016020809104026020016040519081016040528092919081815260200182805461082790611f93565b80156108725780601f1061084957610100808354040283529160200191610872565b820191905f5260205f20905b81548152906001019060200180831161085557829003601f168201915b505050505081565b60045481565b5f5f73ffffffffffffffffffffffffffffffffffffffff1660035f9054906101000a900473ffffffffffffffffffffffffffffffffffffffff1673ffffffffffffffffffffffffffffffffffffffff1603610907576040517f7c272e8a00000000000000000000000000000000000000000000000000000000815260040160405180910390fd5b5f60016004546109179190611ff0565b9050610924858285610e45565b5f8490506109328682610f34565b508360055f8481526020019081526020015f20908161095191906121c3565b5060045f81548092919061096490612292565b919050555081925050509392505050565b5f60025f9054906101000a900473ffffffffffffffffffffffffffffffffffffffff16905090565b5f5f5f61016773ffffffffffffffffffffffffffffffffffffffff16639b23d3d960e01b888888886040516024016109d89493929190611db6565b604051602081830303815290604052907bffffffffffffffffffffffffffffffffffffffffffffffffffffffff19166020820180517bffffffffffffffffffffffffffffffffffffffffffffffffffffffff8381831617835250505050604051610a429190611e33565b5f604051808303815f865af19150503d805f8114610a7b576040519150601f19603f3d011682016040523d82523d5f602084013e610a80565b606091505b509150915081610a91576015610aa6565b80806020019051810190610aa59190611e7f565b5b60030b92505050949350505050565b60035f9054906101000a900473ffffffffffffffffffffffffffffffffffffffff1681565b610ae2610b5e565b5f73ffffffffffffffffffffffffffffffffffffffff168173ffffffffffffffffffffffffffffffffffffffff1603610b52575f6040517f1e4fbdf7000000000000000000000000000000000000000000000000000000008152600401610b499190611d72565b60405180910390fd5b610b5b81610d82565b50565b610b66611137565b73ffffffffffffffffffffffffffffffffffffffff16610b84610975565b73ffffffffffffffffffffffffffffffffffffffff1614610be357610ba7611137565b6040517f118cdaa7000000000000000000000000000000000000000000000000000000008152600401610bda9190611d72565b60405180910390fd5b565b610bed61172f565b6040518060400160405280610c018661113e565b8152602001610c10858561117c565b81525090509392505050565b5f5f825f8161010001515f015160070b148015610c4457505f8161010001516040015160070b145b15610c67576276a70060030b8161010001516040019060070b908160070b815250505b5f5f61016773ffffffffffffffffffffffffffffffffffffffff163463ea83f29360e01b88604051602401610c9c9190612635565b604051602081830303815290604052907bffffffffffffffffffffffffffffffffffffffffffffffffffffffff19166020820180517bffffffffffffffffffffffffffffffffffffffffffffffffffffffff8381831617835250505050604051610d069190611e33565b5f6040518083038185875af1925050503d805f8114610d40576040519150601f19603f3d011682016040523d82523d5f602084013e610d45565b606091505b509150915081610d575760155f610d6c565b80806020019051810190610d6b9190612690565b5b8160030b91508095508196505050505050915091565b5f60025f9054906101000a900473ffffffffffffffffffffffffffffffffffffffff1690508160025f6101000a81548173ffffffffffffffffffffffffffffffffffffffff021916908373ffffffffffffffffffffffffffffffffffffffff1602179055508173ffffffffffffffffffffffffffffffffffffffff168173ffffffffffffffffffffffffffffffffffffffff167f8be0079c531659141344cd1fd0a4f28419497f9722a3daafe3b4186f6b6457e060405160405180910390a35050565b5f8284604051602001610e59929190612733565b6040516020818303038152906040528051906020012090505f610e8d83610e7f84611258565b61128b90919063ffffffff16565b90507f000000000000000000000000000000000000000000000000000000000000000073ffffffffffffffffffffffffffffffffffffffff168173ffffffffffffffffffffffffffffffffffffffff1614610f2d578282610eed84611258565b836040517fe801775f000000000000000000000000000000000000000000000000000000008152600401610f249493929190612776565b60405180910390fd5b5050505050565b5f5f600167ffffffffffffffff811115610f5157610f50611930565b5b604051908082528060200260200182016040528015610f8457816020015b6060815260200190600190039081610f6f5790505b50905082815f81518110610f9b57610f9a611f20565b5b60200260200101819052505f5f610fd460035f9054906101000a900473ffffffffffffffffffffffffffffffffffffffff165f856112b5565b9250509150601660030b82141580610fee57506001815114155b15611033578181516040517fe2aa95e300000000000000000000000000000000000000000000000000000000815260040161102a9291906127c0565b60405180910390fd5b5f815f8151811061104757611046611f20565b5b602002602001015167ffffffffffffffff16905060035f9054906101000a900473ffffffffffffffffffffffffffffffffffffffff1673ffffffffffffffffffffffffffffffffffffffff166323b872dd3089846040518463ffffffff1660e01b81526004016110b9939291906127e7565b5f604051808303815f87803b1580156110d0575f5ffd5b505af11580156110e2573d5f5f3e3d5ffd5b50505050808773ffffffffffffffffffffffffffffffffffffffff167f4cc0a9c4a99ddc700de1af2c9f916a7cbfdb71f14801ccff94061ad1ef8a804060405160405180910390a38094505050505092915050565b5f33905090565b5f60015f8360068111156111555761115461281c565b5b60068111156111675761116661281c565b5b81526020019081526020015f20549050919050565b61118461174e565b600160048111156111985761119761281c565b5b8360048111156111ab576111aa61281c565b5b036111ed5781816020019073ffffffffffffffffffffffffffffffffffffffff16908173ffffffffffffffffffffffffffffffffffffffff1681525050611252565b600480811115611200576111ff61281c565b5b8360048111156112135761121261281c565b5b036112515781816080019073ffffffffffffffffffffffffffffffffffffffff16908173ffffffffffffffffffffffffffffffffffffffff16815250505b5b92915050565b5f7f19457468657265756d205369676e6564204d6573736167653a0a3332000000005f5281601c52603c5f209050919050565b5f5f5f5f6112998686611426565b9250925092506112a9828261147b565b82935050505092915050565b5f5f60605f5f61016773ffffffffffffffffffffffffffffffffffffffff1663e0f4059a60e01b8989896040516024016112f193929190612904565b604051602081830303815290604052907bffffffffffffffffffffffffffffffffffffffffffffffffffffffff19166020820180517bffffffffffffffffffffffffffffffffffffffffffffffffffffffff838183161783525050505060405161135b9190611e33565b5f604051808303815f865af19150503d805f8114611394576040519150601f19603f3d011682016040523d82523d5f602084013e611399565b606091505b5091509150816113f45760155f5f67ffffffffffffffff8111156113c0576113bf611930565b5b6040519080825280602002602001820160405280156113ee5781602001602082028036833780820191505090505b50611409565b808060200190518101906114089190612a2e565b5b8260030b9250809550819650829750505050505093509350939050565b5f5f5f6041845103611466575f5f5f602087015192506040870151915060608701515f1a9050611458888285856115dd565b955095509550505050611474565b5f600285515f1b9250925092505b9250925092565b5f600381111561148e5761148d61281c565b5b8260038111156114a1576114a061281c565b5b03156115d957600160038111156114bb576114ba61281c565b5b8260038111156114ce576114cd61281c565b5b03611505576040517ff645eedf00000000000000000000000000000000000000000000000000000000815260040160405180910390fd5b600260038111156115195761151861281c565b5b82600381111561152c5761152b61281c565b5b0361157057805f1c6040517ffce698f70000000000000000000000000000000000000000000000000000000081526004016115679190611cc2565b60405180910390fd5b6003808111156115835761158261281c565b5b8260038111156115965761159561281c565b5b036115d857806040517fd78bce0c0000000000000000000000000000000000000000000000000000000081526004016115cf9190612a9a565b60405180910390fd5b5b5050565b5f5f5f7f7fffffffffffffffffffffffffffffff5d576e7357a4501ddfe92f46681b20a0845f1c1115611619575f6003859250925092506116ba565b5f6001888888886040515f815260200160405260405161163c9493929190612ace565b6020604051602081039080840390855afa15801561165c573d5f5f3e3d5ffd5b5050506020604051035190505f73ffffffffffffffffffffffffffffffffffffffff168173ffffffffffffffffffffffffffffffffffffffff16036116ad575f60015f5f1b935093509350506116ba565b805f5f5f1b935093509350505b9450945094915050565b60405180610120016040528060608152602001606081526020015f73ffffffffffffffffffffffffffffffffffffffff168152602001606081526020015f151581526020015f60070b81526020015f15158152602001606081526020016117296117a8565b81525090565b60405180604001604052805f815260200161174861174e565b81525090565b6040518060a001604052805f151581526020015f73ffffffffffffffffffffffffffffffffffffffff16815260200160608152602001606081526020015f73ffffffffffffffffffffffffffffffffffffffff1681525090565b60405180606001604052805f60070b81526020015f73ffffffffffffffffffffffffffffffffffffffff1681526020015f60070b81525090565b5f604051905090565b5f5ffd5b5f5ffd5b5f73ffffffffffffffffffffffffffffffffffffffff82169050919050565b5f61181c826117f3565b9050919050565b61182c81611812565b8114611836575f5ffd5b50565b5f8135905061184781611823565b92915050565b5f819050919050565b61185f8161184d565b8114611869575f5ffd5b50565b5f8135905061187a81611856565b92915050565b5f5f5f5f60808587031215611898576118976117eb565b5b5f6118a587828801611839565b94505060206118b687828801611839565b93505060406118c787828801611839565b92505060606118d88782880161186c565b91505092959194509250565b5f8160070b9050919050565b6118f9816118e4565b82525050565b5f6020820190506119125f8301846118f0565b92915050565b5f5ffd5b5f5ffd5b5f601f19601f8301169050919050565b7f4e487b71000000000000000000000000000000000000000000000000000000005f52604160045260245ffd5b61196682611920565b810181811067ffffffffffffffff8211171561198557611984611930565b5b80604052505050565b5f6119976117e2565b90506119a3828261195d565b919050565b5f67ffffffffffffffff8211156119c2576119c1611930565b5b6119cb82611920565b9050602081019050919050565b828183375f83830152505050565b5f6119f86119f3846119a8565b61198e565b905082815260208101848484011115611a1457611a1361191c565b5b611a1f8482856119d8565b509392505050565b5f82601f830112611a3b57611a3a611918565b5b8135611a4b8482602086016119e6565b91505092915050565b5f5f60408385031215611a6a57611a696117eb565b5b5f611a7785828601611839565b925050602083013567ffffffffffffffff811115611a9857611a976117ef565b5b611aa485828601611a27565b9150509250929050565b5f819050919050565b611ac081611aae565b82525050565b5f81519050919050565b5f82825260208201905092915050565b8281835e5f83830152505050565b5f611af882611ac6565b611b028185611ad0565b9350611b12818560208601611ae0565b611b1b81611920565b840191505092915050565b5f604082019050611b395f830185611ab7565b8181036020830152611b4b8184611aee565b90509392505050565b5f67ffffffffffffffff821115611b6e57611b6d611930565b5b611b7782611920565b9050602081019050919050565b5f611b96611b9184611b54565b61198e565b905082815260208101848484011115611bb257611bb161191c565b5b611bbd8482856119d8565b509392505050565b5f82601f830112611bd957611bd8611918565b5b8135611be9848260208601611b84565b91505092915050565b5f5f60408385031215611c0857611c076117eb565b5b5f83013567ffffffffffffffff811115611c2557611c246117ef565b5b611c3185828601611bc5565b925050602083013567ffffffffffffffff811115611c5257611c516117ef565b5b611c5e85828601611bc5565b9150509250929050565b5f60208284031215611c7d57611c7c6117eb565b5b5f611c8a8482850161186c565b91505092915050565b5f6020820190508181035f830152611cab8184611aee565b905092915050565b611cbc8161184d565b82525050565b5f602082019050611cd55f830184611cb3565b92915050565b5f5f5f60608486031215611cf257611cf16117eb565b5b5f611cff86828701611839565b935050602084013567ffffffffffffffff811115611d2057611d1f6117ef565b5b611d2c86828701611bc5565b925050604084013567ffffffffffffffff811115611d4d57611d4c6117ef565b5b611d5986828701611a27565b9150509250925092565b611d6c81611812565b82525050565b5f602082019050611d855f830184611d63565b92915050565b5f60208284031215611da057611d9f6117eb565b5b5f611dad84828501611839565b91505092915050565b5f608082019050611dc95f830187611d63565b611dd66020830186611d63565b611de36040830185611d63565b611df06060830184611cb3565b95945050505050565b5f81905092915050565b5f611e0d82611ac6565b611e178185611df9565b9350611e27818560208601611ae0565b80840191505092915050565b5f611e3e8284611e03565b915081905092915050565b5f8160030b9050919050565b611e5e81611e49565b8114611e68575f5ffd5b50565b5f81519050611e7981611e55565b92915050565b5f60208284031215611e9457611e936117eb565b5b5f611ea184828501611e6b565b91505092915050565b5f604082019050611ebd5f830185611d63565b8181036020830152611ecf8184611aee565b90509392505050565b5f8115159050919050565b611eec81611ed8565b82525050565b5f604082019050611f055f830185611ee3565b8181036020830152611f178184611aee565b90509392505050565b7f4e487b71000000000000000000000000000000000000000000000000000000005f52603260045260245ffd5b5f602082019050611f605f830184611ab7565b92915050565b7f4e487b71000000000000000000000000000000000000000000000000000000005f52602260045260245ffd5b5f6002820490506001821680611faa57607f821691505b602082108103611fbd57611fbc611f66565b5b50919050565b7f4e487b71000000000000000000000000000000000000000000000000000000005f52601160045260245ffd5b5f611ffa8261184d565b91506120058361184d565b925082820190508082111561201d5761201c611fc3565b5b92915050565b5f819050815f5260205f209050919050565b5f6020601f8301049050919050565b5f82821b905092915050565b5f6008830261207f7fffffffffffffffffffffffffffffffffffffffffffffffffffffffffffffffff82612044565b6120898683612044565b95508019841693508086168417925050509392505050565b5f819050919050565b5f6120c46120bf6120ba8461184d565b6120a1565b61184d565b9050919050565b5f819050919050565b6120dd836120aa565b6120f16120e9826120cb565b848454612050565b825550505050565b5f5f905090565b6121086120f9565b6121138184846120d4565b505050565b5b818110156121365761212b5f82612100565b600181019050612119565b5050565b601f82111561217b5761214c81612023565b61215584612035565b81016020851015612164578190505b61217861217085612035565b830182612118565b50505b505050565b5f82821c905092915050565b5f61219b5f1984600802612180565b1980831691505092915050565b5f6121b3838361218c565b9150826002028217905092915050565b6121cc82611ac6565b67ffffffffffffffff8111156121e5576121e4611930565b5b6121ef8254611f93565b6121fa82828561213a565b5f60209050601f83116001811461222b575f8415612219578287015190505b61222385826121a8565b86555061228a565b601f19841661223986612023565b5f5b828110156122605784890151825560018201915060208501945060208101905061223b565b8683101561227d5784890151612279601f89168261218c565b8355505b6001600288020188555050505b505050505050565b5f61229c8261184d565b91507fffffffffffffffffffffffffffffffffffffffffffffffffffffffffffffffff82036122ce576122cd611fc3565b5b600182019050919050565b5f81519050919050565b5f82825260208201905092915050565b5f6122fd826122d9565b61230781856122e3565b9350612317818560208601611ae0565b61232081611920565b840191505092915050565b61233481611812565b82525050565b61234381611ed8565b82525050565b612352816118e4565b82525050565b5f81519050919050565b5f82825260208201905092915050565b5f819050602082019050919050565b61238a8161184d565b82525050565b5f82825260208201905092915050565b5f6123aa82611ac6565b6123b48185612390565b93506123c4818560208601611ae0565b6123cd81611920565b840191505092915050565b5f60a083015f8301516123ed5f86018261233a565b506020830151612400602086018261232b565b506040830151848203604086015261241882826123a0565b9150506060830151848203606086015261243282826123a0565b9150506080830151612447608086018261232b565b508091505092915050565b5f604083015f8301516124675f860182612381565b506020830151848203602086015261247f82826123d8565b9150508091505092915050565b5f6124978383612452565b905092915050565b5f602082019050919050565b5f6124b582612358565b6124bf8185612362565b9350836020820285016124d185612372565b805f5b8581101561250c57848403895281516124ed858261248c565b94506124f88361249f565b925060208a019950506001810190506124d4565b50829750879550505050505092915050565b606082015f8201516125325f850182612349565b506020820151612545602085018261232b565b5060408201516125586040850182612349565b50505050565b5f61016083015f8301518482035f86015261257982826122f3565b9150506020830151848203602086015261259382826122f3565b91505060408301516125a8604086018261232b565b50606083015184820360608601526125c082826122f3565b91505060808301516125d5608086018261233a565b5060a08301516125e860a0860182612349565b5060c08301516125fb60c086018261233a565b5060e083015184820360e086015261261382826124ab565b91505061010083015161262a61010086018261251e565b508091505092915050565b5f6020820190508181035f83015261264d818461255e565b905092915050565b5f61265f826117f3565b9050919050565b61266f81612655565b8114612679575f5ffd5b50565b5f8151905061268a81612666565b92915050565b5f5f604083850312156126a6576126a56117eb565b5b5f6126b385828601611e6b565b92505060206126c48582860161267c565b9150509250929050565b5f819050919050565b6126e86126e38261184d565b6126ce565b82525050565b5f8160601b9050919050565b5f612704826126ee565b9050919050565b5f612715826126fa565b9050919050565b61272d61272882611812565b61270b565b82525050565b5f61273e82856126d7565b60208201915061274e828461271c565b6014820191508190509392505050565b5f819050919050565b6127708161275e565b82525050565b5f6080820190508181035f83015261278e8187611aee565b905061279d6020830186612767565b6127aa6040830185612767565b6127b76060830184611d63565b95945050505050565b5f6040820190506127d35f830185611ab7565b6127e06020830184611cb3565b9392505050565b5f6060820190506127fa5f830186611d63565b6128076020830185611d63565b6128146040830184611cb3565b949350505050565b7f4e487b71000000000000000000000000000000000000000000000000000000005f52602160045260245ffd5b5f81519050919050565b5f82825260208201905092915050565b5f819050602082019050919050565b5f61287d83836123a0565b905092915050565b5f602082019050919050565b5f61289b82612849565b6128a58185612853565b9350836020820285016128b785612863565b805f5b858110156128f257848403895281516128d38582612872565b94506128de83612885565b925060208a019950506001810190506128ba565b50829750879550505050505092915050565b5f6060820190506129175f830186611d63565b61292460208301856118f0565b81810360408301526129368184612891565b9050949350505050565b612949816118e4565b8114612953575f5ffd5b50565b5f8151905061296481612940565b92915050565b5f67ffffffffffffffff82111561298457612983611930565b5b602082029050602081019050919050565b5f5ffd5b5f6129ab6129a68461296a565b61198e565b905080838252602082019050602084028301858111156129ce576129cd612995565b5b835b818110156129f757806129e38882612956565b8452602084019350506020810190506129d0565b5050509392505050565b5f82601f830112612a1557612a14611918565b5b8151612a25848260208601612999565b91505092915050565b5f5f5f60608486031215612a4557612a446117eb565b5b5f612a5286828701611e6b565b9350506020612a6386828701612956565b925050604084015167ffffffffffffffff811115612a8457612a836117ef565b5b612a9086828701612a01565b9150509250925092565b5f602082019050612aad5f830184612767565b92915050565b5f60ff82169050919050565b612ac881612ab3565b82525050565b5f608082019050612ae15f830187612767565b612aee6020830186612abf565b612afb6040830185612767565b612b086060830184612767565b9594505050505056fea2646970667358221220f21b97cab6804a4565e2f4fad90e7addf09dbdcb38721ae4d727e6ee18c1fc5964736f6c634300081e0033","linkReferences":{}},"methodIdentifiers":{"createNFTCollection(string,string)":"66223a18","latestTokenId()":"8c0e8349","mint(address,string,bytes)":"8d75533f","owner()":"8da5cb5b","redirectForToken(address,bytes)":"618dc65e","renounceOwnership()":"715018a6","signatures(uint256)":"8be10194","tokenAddress()":"9d76ea58","transferFrom(address,address,address,uint256)":"15dacbea","transferFromNFT(address,address,address,uint256)":"9b23d3d9","transferOwnership(address)":"f2fde38b"},"id":53}