{
  "_format": "hh3-artifact-1",
  "contractName": "SmartContractWallet",
  "sourceName": "contracts/SmartContractWallet.sol",
  "abi": [
    {
      "inputs": [
        {
          "internalType": "address",
          "name": "owner",
          "type": "address"
        }
      ],
      "stateMutability": "nonpayable",
      "type": "constructor"
    },
    {
      "inputs": [
        {
          "internalType": "address",
          "name": "sender",
          "type": "address"
        }
      ],
      "name": "AccountUnauthorized",
      "type": "error"
    },
    {
      "inputs": [],
      "name": "ECDSAInvalidSignature",
      "type": "error"
    },
    {
      "inputs": [
        {
          "internalType": "uint256",
          "name": "length",
          "type": "uint256"
        }
      ],
      "name": "ECDSAInvalidSignatureLength",
      "type": "error"
    },
    {
      "inputs": [
        {
          "internalType": "bytes32",
          "name": "s",
          "type": "bytes32"
        }
      ],
      "name": "ECDSAInvalidSignatureS",
      "type": "error"
    },
    {
      "inputs": [],
      "name": "entryPoint",
      "outputs": [
        {
          "internalType": "contract IEntryPoint",
          "name": "",
          "type": "address"
        }
      ],
      "stateMutability": "view",
      "type": "function"
    },
    {
      "inputs": [
        {
          "internalType": "address",
          "name": "dest",
          "type": "address"
        },
        {
          "internalType": "uint256",
          "name": "value",
          "type": "uint256"
        },
        {
          "internalType": "bytes",
          "name": "func",
          "type": "bytes"
        }
      ],
      "name": "execute",
      "outputs": [],
      "stateMutability": "nonpayable",
      "type": "function"
    },
    {
      "inputs": [
        {
          "internalType": "uint192",
          "name": "key",
          "type": "uint192"
        }
      ],
      "name": "getNonce",
      "outputs": [
        {
          "internalType": "uint256",
          "name": "",
          "type": "uint256"
        }
      ],
      "stateMutability": "view",
      "type": "function"
    },
    {
      "inputs": [],
      "name": "getNonce",
      "outputs": [
        {
          "internalType": "uint256",
          "name": "",
          "type": "uint256"
        }
      ],
      "stateMutability": "view",
      "type": "function"
    },
    {
      "inputs": [
        {
          "components": [
            {
              "internalType": "address",
              "name": "sender",
              "type": "address"
            },
            {
              "internalType": "uint256",
              "name": "nonce",
              "type": "uint256"
            },
            {
              "internalType": "bytes",
              "name": "initCode",
              "type": "bytes"
            },
            {
              "internalType": "bytes",
              "name": "callData",
              "type": "bytes"
            },
            {
              "internalType": "bytes32",
              "name": "accountGasLimits",
              "type": "bytes32"
            },
            {
              "internalType": "uint256",
              "name": "preVerificationGas",
              "type": "uint256"
            },
            {
              "internalType": "bytes32",
              "name": "gasFees",
              "type": "bytes32"
            },
            {
              "internalType": "bytes",
              "name": "paymasterAndData",
              "type": "bytes"
            },
            {
              "internalType": "bytes",
              "name": "signature",
              "type": "bytes"
            }
          ],
          "internalType": "struct PackedUserOperation",
          "name": "userOp",
          "type": "tuple"
        },
        {
          "internalType": "bytes32",
          "name": "userOpHash",
          "type": "bytes32"
        },
        {
          "internalType": "uint256",
          "name": "missingAccountFunds",
          "type": "uint256"
        }
      ],
      "name": "validateUserOp",
      "outputs": [
        {
          "internalType": "uint256",
          "name": "",
          "type": "uint256"
        }
      ],
      "stateMutability": "nonpayable",
      "type": "function"
    },
    {
      "stateMutability": "payable",
      "type": "receive"
    }
  ],
  "bytecode": "0x60a0604052348015600e575f5ffd5b506040516108a23803806108a2833981016040819052602b91603b565b6001600160a01b03166080526066565b5f60208284031215604a575f5ffd5b81516001600160a01b0381168114605f575f5ffd5b9392505050565b60805161082461007e5f395f6103fa01526108245ff3fe60806040526004361061004c575f3560e01c806319822f7c146100575780633e1b081214610089578063b0d691fe146100a8578063b61d27f6146100d6578063d087d288146100f7575f5ffd5b3661005357005b5f5ffd5b348015610062575f5ffd5b5061007661007136600461065e565b61010b565b6040519081526020015b60405180910390f35b348015610094575f5ffd5b506100766100a33660046106ad565b610132565b3480156100b3575f5ffd5b50604051734337084d9e255ff0702461cf8895ce9e3b5ff1088152602001610080565b3480156100e1575f5ffd5b506100f56100f03660046106d3565b6101c5565b005b348015610102575f5ffd5b50610076610213565b5f610114610222565b5f61011f858561026a565b905061012a83610296565b949350505050565b5f734337084d9e255ff0702461cf8895ce9e3b5ff108604051631aab3f0d60e11b81523060048201526001600160c01b03841660248201526001600160a01b0391909116906335567e1a90604401602060405180830381865afa15801561019b573d5f5f3e3d5ffd5b505050506040513d601f19601f820116820180604052508101906101bf9190610763565b92915050565b6101cd6102e7565b61020d848484848080601f0160208091040260200160405190810160405280939291908181526020018383808284375f9201919091525061033e92505050565b50505050565b5f61021d5f610132565b905090565b33734337084d9e255ff0702461cf8895ce9e3b5ff108811461026757604051637cf8632b60e01b81526001600160a01b03821660048201526024015b60405180910390fd5b50565b5f6102828261027d61010086018661077a565b6103aa565b61028d57600161028f565b5f5b9392505050565b8015610267576040515f90339083908381818185875af1925050503d805f81146102db576040519150601f19603f3d011682016040523d82523d5f602084013e6102e0565b606091505b5050505050565b3330811480159061031557506001600160a01b038116734337084d9e255ff0702461cf8895ce9e3b5ff10814155b1561026757604051637cf8632b60e01b81526001600160a01b038216600482015260240161025e565b5f5f846001600160a01b0316848460405161035991906107c4565b5f6040518083038185875af1925050503d805f8114610393576040519150601f19603f3d011682016040523d82523d5f602084013e610398565b606091505b5091509150816102e057805160208201fd5b5f5f6103f684848080601f0160208091040260200160405190810160405280939291908181526020018383808284375f920191909152506103f092508991506104379050565b90610469565b90507f00000000000000000000000000000000000000000000000000000000000000006001600160a01b0316816001600160a01b0316149150509392505050565b7f19457468657265756d205369676e6564204d6573736167653a0a3332000000005f908152601c91909152603c902090565b5f5f5f5f6104778686610491565b92509250925061048782826104da565b5090949350505050565b5f5f5f83516041036104c8576020840151604085015160608601515f1a6104ba88828585610596565b9550955095505050506104d3565b505081515f91506002905b9250925092565b5f8260038111156104ed576104ed6107da565b036104f6575050565b600182600381111561050a5761050a6107da565b036105285760405163f645eedf60e01b815260040160405180910390fd5b600282600381111561053c5761053c6107da565b0361055d5760405163fce698f760e01b81526004810182905260240161025e565b6003826003811115610571576105716107da565b03610592576040516335e2f38360e21b81526004810182905260240161025e565b5050565b5f80807f7fffffffffffffffffffffffffffffff5d576e7357a4501ddfe92f46681b20a08411156105cf57505f91506003905082610654565b604080515f808252602082018084528a905260ff891692820192909252606081018790526080810186905260019060a0016020604051602081039080840390855afa158015610620573d5f5f3e3d5ffd5b5050604051601f1901519150506001600160a01b03811661064b57505f925060019150829050610654565b92505f91508190505b9450945094915050565b5f5f5f60608486031215610670575f5ffd5b833567ffffffffffffffff811115610686575f5ffd5b84016101208187031215610698575f5ffd5b95602085013595506040909401359392505050565b5f602082840312156106bd575f5ffd5b81356001600160c01b038116811461028f575f5ffd5b5f5f5f5f606085870312156106e6575f5ffd5b84356001600160a01b03811681146106fc575f5ffd5b935060208501359250604085013567ffffffffffffffff81111561071e575f5ffd5b8501601f8101871361072e575f5ffd5b803567ffffffffffffffff811115610744575f5ffd5b876020828401011115610755575f5ffd5b949793965060200194505050565b5f60208284031215610773575f5ffd5b5051919050565b5f5f8335601e1984360301811261078f575f5ffd5b83018035915067ffffffffffffffff8211156107a9575f5ffd5b6020019150368190038213156107bd575f5ffd5b9250929050565b5f82518060208501845e5f920191825250919050565b634e487b7160e01b5f52602160045260245ffdfea2646970667358221220007acf23588243e02f3616de6df5f72c302fbe0b4e198d3993d8544d528947f364736f6c634300081e0033",
  "linkReferences": {},
  "deployedLinkReferences": {},
  "immutableReferences": {
    "10086": [
      {
        "length": 32,
        "start": 1018
      }
    ]
  },
  "inputSourceName": "project/contracts/SmartContractWallet.sol",
  "buildInfoId": "solc-0_8_30-f2e100fc42486e02cd0d13be35ed5e86ad26720d"
}