{
  "_format": "hh3-artifact-1",
  "contractName": "SmartContractWallet",
  "sourceName": "contracts/SmartContractWallet.sol",
  "abi": [
    {
      "inputs": [
        {
          "internalType": "address",
          "name": "owner",
          "type": "address"
        },
        {
          "internalType": "address",
          "name": "entryPoint",
          "type": "address"
        }
      ],
      "stateMutability": "nonpayable",
      "type": "constructor"
    },
    {
      "inputs": [
        {
          "internalType": "address",
          "name": "sender",
          "type": "address"
        }
      ],
      "name": "AccountUnauthorized",
      "type": "error"
    },
    {
      "inputs": [],
      "name": "ECDSAInvalidSignature",
      "type": "error"
    },
    {
      "inputs": [
        {
          "internalType": "uint256",
          "name": "length",
          "type": "uint256"
        }
      ],
      "name": "ECDSAInvalidSignatureLength",
      "type": "error"
    },
    {
      "inputs": [
        {
          "internalType": "bytes32",
          "name": "s",
          "type": "bytes32"
        }
      ],
      "name": "ECDSAInvalidSignatureS",
      "type": "error"
    },
    {
      "inputs": [],
      "name": "entryPoint",
      "outputs": [
        {
          "internalType": "contract IEntryPoint",
          "name": "",
          "type": "address"
        }
      ],
      "stateMutability": "view",
      "type": "function"
    },
    {
      "inputs": [
        {
          "internalType": "address",
          "name": "dest",
          "type": "address"
        },
        {
          "internalType": "uint256",
          "name": "value",
          "type": "uint256"
        },
        {
          "internalType": "bytes",
          "name": "func",
          "type": "bytes"
        }
      ],
      "name": "execute",
      "outputs": [],
      "stateMutability": "nonpayable",
      "type": "function"
    },
    {
      "inputs": [
        {
          "internalType": "uint192",
          "name": "key",
          "type": "uint192"
        }
      ],
      "name": "getNonce",
      "outputs": [
        {
          "internalType": "uint256",
          "name": "",
          "type": "uint256"
        }
      ],
      "stateMutability": "view",
      "type": "function"
    },
    {
      "inputs": [],
      "name": "getNonce",
      "outputs": [
        {
          "internalType": "uint256",
          "name": "",
          "type": "uint256"
        }
      ],
      "stateMutability": "view",
      "type": "function"
    },
    {
      "inputs": [
        {
          "components": [
            {
              "internalType": "address",
              "name": "sender",
              "type": "address"
            },
            {
              "internalType": "uint256",
              "name": "nonce",
              "type": "uint256"
            },
            {
              "internalType": "bytes",
              "name": "initCode",
              "type": "bytes"
            },
            {
              "internalType": "bytes",
              "name": "callData",
              "type": "bytes"
            },
            {
              "internalType": "bytes32",
              "name": "accountGasLimits",
              "type": "bytes32"
            },
            {
              "internalType": "uint256",
              "name": "preVerificationGas",
              "type": "uint256"
            },
            {
              "internalType": "bytes32",
              "name": "gasFees",
              "type": "bytes32"
            },
            {
              "internalType": "bytes",
              "name": "paymasterAndData",
              "type": "bytes"
            },
            {
              "internalType": "bytes",
              "name": "signature",
              "type": "bytes"
            }
          ],
          "internalType": "struct PackedUserOperation",
          "name": "userOp",
          "type": "tuple"
        },
        {
          "internalType": "bytes32",
          "name": "userOpHash",
          "type": "bytes32"
        },
        {
          "internalType": "uint256",
          "name": "missingAccountFunds",
          "type": "uint256"
        }
      ],
      "name": "validateUserOp",
      "outputs": [
        {
          "internalType": "uint256",
          "name": "",
          "type": "uint256"
        }
      ],
      "stateMutability": "nonpayable",
      "type": "function"
    },
    {
      "stateMutability": "payable",
      "type": "receive"
    }
  ],
  "bytecode": "0x60c060405234801561000f575f5ffd5b5060405161098f38038061098f83398101604081905261002e91610060565b6001600160a01b039182166080521660a052610091565b80516001600160a01b038116811461005b575f5ffd5b919050565b5f5f60408385031215610071575f5ffd5b61007a83610045565b915061008860208401610045565b90509250929050565b60805160a0516108cf6100c05f395f81816102250152818161027f01526102b201525f6104a501526108cf5ff3fe60806040526004361061004c575f3560e01c806319822f7c146100575780633e1b081214610089578063b0d691fe146100a8578063b61d27f6146100d6578063d087d288146100f7575f5ffd5b3661005357005b5f5ffd5b348015610062575f5ffd5b50610076610071366004610709565b61010b565b6040519081526020015b60405180910390f35b348015610094575f5ffd5b506100766100a3366004610758565b610132565b3480156100b3575f5ffd5b50604051734337084d9e255ff0702461cf8895ce9e3b5ff1088152602001610080565b3480156100e1575f5ffd5b506100f56100f036600461077e565b6101c5565b005b348015610102575f5ffd5b50610076610213565b5f610114610222565b5f61011f8585610318565b905061012a83610344565b949350505050565b5f734337084d9e255ff0702461cf8895ce9e3b5ff108604051631aab3f0d60e11b81523060048201526001600160c01b03841660248201526001600160a01b0391909116906335567e1a90604401602060405180830381865afa15801561019b573d5f5f3e3d5ffd5b505050506040513d601f19601f820116820180604052508101906101bf919061080e565b92915050565b6101cd610395565b61020d848484848080601f0160208091040260200160405190810160405280939291908181526020018383808284375f920191909152506103e992505050565b50505050565b5f61021d5f610132565b905090565b337f00000000000000000000000000000000000000000000000000000000000000006001600160a01b031615801561027757506001600160a01b038116734337084d9e255ff0702461cf8895ce9e3b5ff10814155b806102e757507f00000000000000000000000000000000000000000000000000000000000000006001600160a01b0316158015906102e757507f00000000000000000000000000000000000000000000000000000000000000006001600160a01b0316816001600160a01b031614155b1561031557604051637cf8632b60e01b81526001600160a01b03821660048201526024015b60405180910390fd5b50565b5f6103308261032b610100860186610825565b610455565b61033b57600161033d565b5f5b9392505050565b8015610315576040515f90339083908381818185875af1925050503d805f8114610389576040519150601f19603f3d011682016040523d82523d5f602084013e61038e565b606091505b5050505050565b333081148015906102e757506001600160a01b038116734337084d9e255ff0702461cf8895ce9e3b5ff1081461031557604051637cf8632b60e01b81526001600160a01b038216600482015260240161030c565b5f5f846001600160a01b03168484604051610404919061086f565b5f6040518083038185875af1925050503d805f811461043e576040519150601f19603f3d011682016040523d82523d5f602084013e610443565b606091505b50915091508161038e57805160208201fd5b5f5f6104a184848080601f0160208091040260200160405190810160405280939291908181526020018383808284375f9201919091525061049b92508991506104e29050565b90610514565b90507f00000000000000000000000000000000000000000000000000000000000000006001600160a01b0316816001600160a01b0316149150509392505050565b7f19457468657265756d205369676e6564204d6573736167653a0a3332000000005f908152601c91909152603c902090565b5f5f5f5f610522868661053c565b9250925092506105328282610585565b5090949350505050565b5f5f5f8351604103610573576020840151604085015160608601515f1a61056588828585610641565b95509550955050505061057e565b505081515f91506002905b9250925092565b5f82600381111561059857610598610885565b036105a1575050565b60018260038111156105b5576105b5610885565b036105d35760405163f645eedf60e01b815260040160405180910390fd5b60028260038111156105e7576105e7610885565b036106085760405163fce698f760e01b81526004810182905260240161030c565b600382600381111561061c5761061c610885565b0361063d576040516335e2f38360e21b81526004810182905260240161030c565b5050565b5f80807f7fffffffffffffffffffffffffffffff5d576e7357a4501ddfe92f46681b20a084111561067a57505f915060039050826106ff565b604080515f808252602082018084528a905260ff891692820192909252606081018790526080810186905260019060a0016020604051602081039080840390855afa1580156106cb573d5f5f3e3d5ffd5b5050604051601f1901519150506001600160a01b0381166106f657505f9250600191508290506106ff565b92505f91508190505b9450945094915050565b5f5f5f6060848603121561071b575f5ffd5b833567ffffffffffffffff811115610731575f5ffd5b84016101208187031215610743575f5ffd5b95602085013595506040909401359392505050565b5f60208284031215610768575f5ffd5b81356001600160c01b038116811461033d575f5ffd5b5f5f5f5f60608587031215610791575f5ffd5b84356001600160a01b03811681146107a7575f5ffd5b935060208501359250604085013567ffffffffffffffff8111156107c9575f5ffd5b8501601f810187136107d9575f5ffd5b803567ffffffffffffffff8111156107ef575f5ffd5b876020828401011115610800575f5ffd5b949793965060200194505050565b5f6020828403121561081e575f5ffd5b5051919050565b5f5f8335601e1984360301811261083a575f5ffd5b83018035915067ffffffffffffffff821115610854575f5ffd5b602001915036819003821315610868575f5ffd5b9250929050565b5f82518060208501845e5f920191825250919050565b634e487b7160e01b5f52602160045260245ffdfea2646970667358221220c125d68ca8ae2f19f79093fdf5445a654d7c4fc7be0a1135c44790a05b0dff3364736f6c634300081e0033",
  "linkReferences": {},
  "deployedLinkReferences": {},
  "immutableReferences": {
    "10086": [
      {
        "length": 32,
        "start": 1189
      }
    ],
    "10088": [
      {
        "length": 32,
        "start": 549
      },
      {
        "length": 32,
        "start": 639
      },
      {
        "length": 32,
        "start": 690
      }
    ]
  },
  "inputSourceName": "project/contracts/SmartContractWallet.sol",
  "buildInfoId": "solc-0_8_30-9db2459d9b0e4e1805a78d7e40c6b6e45cf35e8b"
}