{
  "_format": "hh3-artifact-1",
  "contractName": "CrossChainNFTPaymaster",
  "sourceName": "contracts/CrossChainNFTPaymaster.sol",
  "abi": [
    {
      "inputs": [
        {
          "internalType": "address",
          "name": "owner",
          "type": "address"
        },
        {
          "internalType": "address",
          "name": "admin",
          "type": "address"
        }
      ],
      "stateMutability": "nonpayable",
      "type": "constructor"
    },
    {
      "inputs": [],
      "name": "AdminSignatureFailed",
      "type": "error"
    },
    {
      "inputs": [],
      "name": "ECDSAInvalidSignature",
      "type": "error"
    },
    {
      "inputs": [
        {
          "internalType": "uint256",
          "name": "length",
          "type": "uint256"
        }
      ],
      "name": "ECDSAInvalidSignatureLength",
      "type": "error"
    },
    {
      "inputs": [
        {
          "internalType": "bytes32",
          "name": "s",
          "type": "bytes32"
        }
      ],
      "name": "ECDSAInvalidSignatureS",
      "type": "error"
    },
    {
      "inputs": [
        {
          "internalType": "address",
          "name": "owner",
          "type": "address"
        }
      ],
      "name": "OwnableInvalidOwner",
      "type": "error"
    },
    {
      "inputs": [
        {
          "internalType": "address",
          "name": "account",
          "type": "address"
        }
      ],
      "name": "OwnableUnauthorizedAccount",
      "type": "error"
    },
    {
      "inputs": [],
      "name": "ParseFailed",
      "type": "error"
    },
    {
      "inputs": [
        {
          "internalType": "address",
          "name": "sender",
          "type": "address"
        }
      ],
      "name": "PaymasterUnauthorized",
      "type": "error"
    },
    {
      "inputs": [],
      "name": "UserSignatureFailed",
      "type": "error"
    },
    {
      "anonymous": false,
      "inputs": [
        {
          "indexed": true,
          "internalType": "address",
          "name": "previousOwner",
          "type": "address"
        },
        {
          "indexed": true,
          "internalType": "address",
          "name": "newOwner",
          "type": "address"
        }
      ],
      "name": "OwnershipTransferred",
      "type": "event"
    },
    {
      "inputs": [
        {
          "internalType": "uint32",
          "name": "unstakeDelaySec",
          "type": "uint32"
        }
      ],
      "name": "addStake",
      "outputs": [],
      "stateMutability": "payable",
      "type": "function"
    },
    {
      "inputs": [],
      "name": "deposit",
      "outputs": [],
      "stateMutability": "payable",
      "type": "function"
    },
    {
      "inputs": [],
      "name": "entryPoint",
      "outputs": [
        {
          "internalType": "contract IEntryPoint",
          "name": "",
          "type": "address"
        }
      ],
      "stateMutability": "view",
      "type": "function"
    },
    {
      "inputs": [
        {
          "internalType": "address",
          "name": "user",
          "type": "address"
        },
        {
          "internalType": "uint256",
          "name": "tokenId",
          "type": "uint256"
        }
      ],
      "name": "nonces",
      "outputs": [
        {
          "internalType": "uint256",
          "name": "nonce",
          "type": "uint256"
        }
      ],
      "stateMutability": "view",
      "type": "function"
    },
    {
      "inputs": [],
      "name": "owner",
      "outputs": [
        {
          "internalType": "address",
          "name": "",
          "type": "address"
        }
      ],
      "stateMutability": "view",
      "type": "function"
    },
    {
      "inputs": [
        {
          "internalType": "enum IPaymaster.PostOpMode",
          "name": "mode",
          "type": "uint8"
        },
        {
          "internalType": "bytes",
          "name": "context",
          "type": "bytes"
        },
        {
          "internalType": "uint256",
          "name": "actualGasCost",
          "type": "uint256"
        },
        {
          "internalType": "uint256",
          "name": "actualUserOpFeePerGas",
          "type": "uint256"
        }
      ],
      "name": "postOp",
      "outputs": [],
      "stateMutability": "nonpayable",
      "type": "function"
    },
    {
      "inputs": [],
      "name": "renounceOwnership",
      "outputs": [],
      "stateMutability": "nonpayable",
      "type": "function"
    },
    {
      "inputs": [
        {
          "internalType": "address",
          "name": "newOwner",
          "type": "address"
        }
      ],
      "name": "transferOwnership",
      "outputs": [],
      "stateMutability": "nonpayable",
      "type": "function"
    },
    {
      "inputs": [],
      "name": "unlockStake",
      "outputs": [],
      "stateMutability": "nonpayable",
      "type": "function"
    },
    {
      "inputs": [
        {
          "components": [
            {
              "internalType": "address",
              "name": "sender",
              "type": "address"
            },
            {
              "internalType": "uint256",
              "name": "nonce",
              "type": "uint256"
            },
            {
              "internalType": "bytes",
              "name": "initCode",
              "type": "bytes"
            },
            {
              "internalType": "bytes",
              "name": "callData",
              "type": "bytes"
            },
            {
              "internalType": "bytes32",
              "name": "accountGasLimits",
              "type": "bytes32"
            },
            {
              "internalType": "uint256",
              "name": "preVerificationGas",
              "type": "uint256"
            },
            {
              "internalType": "bytes32",
              "name": "gasFees",
              "type": "bytes32"
            },
            {
              "internalType": "bytes",
              "name": "paymasterAndData",
              "type": "bytes"
            },
            {
              "internalType": "bytes",
              "name": "signature",
              "type": "bytes"
            }
          ],
          "internalType": "struct PackedUserOperation",
          "name": "userOp",
          "type": "tuple"
        },
        {
          "internalType": "bytes32",
          "name": "userOpHash",
          "type": "bytes32"
        },
        {
          "internalType": "uint256",
          "name": "maxCost",
          "type": "uint256"
        }
      ],
      "name": "validatePaymasterUserOp",
      "outputs": [
        {
          "internalType": "bytes",
          "name": "context",
          "type": "bytes"
        },
        {
          "internalType": "uint256",
          "name": "validationData",
          "type": "uint256"
        }
      ],
      "stateMutability": "nonpayable",
      "type": "function"
    },
    {
      "inputs": [
        {
          "internalType": "address payable",
          "name": "to",
          "type": "address"
        },
        {
          "internalType": "uint256",
          "name": "value",
          "type": "uint256"
        }
      ],
      "name": "withdraw",
      "outputs": [],
      "stateMutability": "nonpayable",
      "type": "function"
    },
    {
      "inputs": [
        {
          "internalType": "address payable",
          "name": "to",
          "type": "address"
        }
      ],
      "name": "withdrawStake",
      "outputs": [],
      "stateMutability": "nonpayable",
      "type": "function"
    }
  ],
  "bytecode": "0x60a060405234801561000f575f5ffd5b50604051610e2f380380610e2f83398101604081905261002e916100e2565b816001600160a01b03811661005c57604051631e4fbdf760e01b81525f600482015260240160405180910390fd5b61006581610078565b506001600160a01b031660805250610113565b5f80546001600160a01b038381166001600160a01b0319831681178455604051919092169283917f8be0079c531659141344cd1fd0a4f28419497f9722a3daafe3b4186f6b6457e09190a35050565b80516001600160a01b03811681146100dd575f5ffd5b919050565b5f5f604083850312156100f3575f5ffd5b6100fc836100c7565b915061010a602084016100c7565b90509250929050565b608051610d0461012b5f395f6105ad0152610d045ff3fe6080604052600436106100a5575f3560e01c8063b0d691fe11610062578063b0d691fe14610197578063bb9fe6bf146101bd578063c23a5cea146101d1578063d0e30db0146101f0578063f2fde38b146101f8578063f3fef3a314610217575f5ffd5b80630396cb60146100a9578063502e1a16146100be57806352b7512c14610107578063715018a6146101345780637c627b21146101485780638da5cb5b14610167575b5f5ffd5b6100bc6100b7366004610aaa565b610236565b005b3480156100c9575f5ffd5b506100f46100d8366004610ae8565b600160209081525f928352604080842090915290825290205481565b6040519081526020015b60405180910390f35b348015610112575f5ffd5b50610126610121366004610b12565b6102ac565b6040516100fe929190610b61565b34801561013f575f5ffd5b506100bc6102ce565b348015610153575f5ffd5b506100bc610162366004610b9d565b6102e1565b348015610172575f5ffd5b505f546001600160a01b03165b6040516001600160a01b0390911681526020016100fe565b3480156101a2575f5ffd5b50734337084d9e255ff0702461cf8895ce9e3b5ff10861017f565b3480156101c8575f5ffd5b506100bc6102f0565b3480156101dc575f5ffd5b506100bc6101eb366004610c31565b61035c565b6100bc6103cd565b348015610203575f5ffd5b506100bc610212366004610c31565b610424565b348015610222575f5ffd5b506100bc610231366004610ae8565b610466565b734337084d9e255ff0702461cf8895ce9e3b5ff108604051621cb65b60e51b815263ffffffff831660048201526001600160a01b039190911690630396cb609034906024015f604051808303818588803b158015610292575f5ffd5b505af11580156102a4573d5f5f3e3d5ffd5b505050505050565b60605f6102b76104cc565b6102c285858561050c565b91509150935093915050565b6102d6610750565b6102df5f61077c565b565b6102e96104cc565b5050505050565b6102f86107cb565b734337084d9e255ff0702461cf8895ce9e3b5ff1086001600160a01b031663bb9fe6bf6040518163ffffffff1660e01b81526004015f604051808303815f87803b158015610344575f5ffd5b505af1158015610356573d5f5f3e3d5ffd5b50505050565b6103646107cb565b734337084d9e255ff0702461cf8895ce9e3b5ff10860405163611d2e7560e11b81526001600160a01b038381166004830152919091169063c23a5cea906024015f604051808303815f87803b1580156103bb575f5ffd5b505af11580156102e9573d5f5f3e3d5ffd5b734337084d9e255ff0702461cf8895ce9e3b5ff10860405163b760faf960e01b81523060048201526001600160a01b03919091169063b760faf99034906024015f604051808303818588803b1580156103bb575f5ffd5b61042c610750565b6001600160a01b03811661045a57604051631e4fbdf760e01b81525f60048201526024015b60405180910390fd5b6104638161077c565b50565b61046e6107cb565b734337084d9e255ff0702461cf8895ce9e3b5ff10860405163040b850f60e31b81526001600160a01b03848116600483015260248201849052919091169063205c2878906044015f604051808303815f87803b158015610292575f5ffd5b33734337084d9e255ff0702461cf8895ce9e3b5ff10881146104635760405163327499a760e01b81526001600160a01b0382166004820152602401610451565b60605f8080808061055c61052360e08b018b610c4c565b8080601f0160208091040260200160405190810160405280939291908181526020018383808284375f920191909152506107d392505050565b93509350935093505f838360405160200161059392919091825260601b6bffffffffffffffffffffffff1916602082015260340190565b6040516020818303038152906040528051906020012090507f00000000000000000000000000000000000000000000000000000000000000006001600160a01b03166106158661060f847f19457468657265756d205369676e6564204d6573736167653a0a3332000000005f908152601c91909152603c902090565b906108b5565b6001600160a01b03161461063c57604051631168717b60e31b815260040160405180910390fd5b6001600160a01b0383165f81815260016020908152604080832088845282528083205481513060601b6bffffffffffffffffffffffff1916818501526034808201839052835180830390910181526054909101909252815191909201207f19457468657265756d205369676e6564204d6573736167653a0a3332000000008352601c819052603c9092209092906106d490869061060f565b6001600160a01b0316146106fb576040516364ef51fd60e11b815260040160405180910390fd5b6001600160a01b0385165f908152600160209081526040808320898452909152812080549161072983610c96565b909155505060408051602081019091525f808252909d909c509a5050505050505050505050565b5f546001600160a01b031633146102df5760405163118cdaa760e01b8152336004820152602401610451565b5f80546001600160a01b038381166001600160a01b0319831681178455604051919092169283917f8be0079c531659141344cd1fd0a4f28419497f9722a3daafe3b4186f6b6457e09190a35050565b6102df610750565b60605f5f6060845160ea146107fb5760405163c2b4d45b60e01b815260040160405180910390fd5b604080516041808252608082019092529060208201818036833701905050604080516041808252608082019092529195506020820181803683370190505090506034602086810190868101908401605489018260415f5b8181101561086e57835183526020938401939283019201610852565b50505050607583015196506089830151955060a9830191508060415f5b818110156108a75784518352602094850194928301920161088b565b505050505050509193509193565b5f5f5f5f6108c386866108dd565b9250925092506108d38282610926565b5090949350505050565b5f5f5f8351604103610914576020840151604085015160608601515f1a610906888285856109e2565b95509550955050505061091f565b505081515f91506002905b9250925092565b5f82600381111561093957610939610cba565b03610942575050565b600182600381111561095657610956610cba565b036109745760405163f645eedf60e01b815260040160405180910390fd5b600282600381111561098857610988610cba565b036109a95760405163fce698f760e01b815260048101829052602401610451565b60038260038111156109bd576109bd610cba565b036109de576040516335e2f38360e21b815260048101829052602401610451565b5050565b5f80807f7fffffffffffffffffffffffffffffff5d576e7357a4501ddfe92f46681b20a0841115610a1b57505f91506003905082610aa0565b604080515f808252602082018084528a905260ff891692820192909252606081018790526080810186905260019060a0016020604051602081039080840390855afa158015610a6c573d5f5f3e3d5ffd5b5050604051601f1901519150506001600160a01b038116610a9757505f925060019150829050610aa0565b92505f91508190505b9450945094915050565b5f60208284031215610aba575f5ffd5b813563ffffffff81168114610acd575f5ffd5b9392505050565b6001600160a01b0381168114610463575f5ffd5b5f5f60408385031215610af9575f5ffd5b8235610b0481610ad4565b946020939093013593505050565b5f5f5f60608486031215610b24575f5ffd5b833567ffffffffffffffff811115610b3a575f5ffd5b84016101208187031215610b4c575f5ffd5b95602085013595506040909401359392505050565b604081525f83518060408401528060208601606085015e5f606082850101526060601f19601f8301168401019150508260208301529392505050565b5f5f5f5f5f60808688031215610bb1575f5ffd5b853560038110610bbf575f5ffd5b9450602086013567ffffffffffffffff811115610bda575f5ffd5b8601601f81018813610bea575f5ffd5b803567ffffffffffffffff811115610c00575f5ffd5b886020828401011115610c11575f5ffd5b959860209190910197509495604081013595606090910135945092505050565b5f60208284031215610c41575f5ffd5b8135610acd81610ad4565b5f5f8335601e19843603018112610c61575f5ffd5b83018035915067ffffffffffffffff821115610c7b575f5ffd5b602001915036819003821315610c8f575f5ffd5b9250929050565b5f60018201610cb357634e487b7160e01b5f52601160045260245ffd5b5060010190565b634e487b7160e01b5f52602160045260245ffdfea264697066735822122076e82953178ee0a15c9037d6e3528897422a8c675e1d81e8bccd0780ef8f165b64736f6c634300081e0033",
  "linkReferences": {},
  "deployedLinkReferences": {},
  "immutableReferences": {
    "10236": [
      {
        "length": 32,
        "start": 1453
      }
    ]
  },
  "inputSourceName": "project/contracts/CrossChainNFTPaymaster.sol",
  "buildInfoId": "solc-0_8_30-f9f786f8d2fb6ddc4d47204b8631badc7a060e83"
}